{
  "contractName": "bettingContractV1",
  "abi": [
    {
      "constant": true,
      "inputs": [],
      "name": "team1bet",
      "outputs": [
        {
          "name": "",
          "type": "address"
        }
      ],
      "payable": false,
      "stateMutability": "view",
      "type": "function"
    },
    {
      "constant": true,
      "inputs": [],
      "name": "team0bet",
      "outputs": [
        {
          "name": "",
          "type": "address"
        }
      ],
      "payable": false,
      "stateMutability": "view",
      "type": "function"
    },
    {
      "constant": true,
      "inputs": [],
      "name": "matchId",
      "outputs": [
        {
          "name": "",
          "type": "uint256"
        }
      ],
      "payable": false,
      "stateMutability": "view",
      "type": "function"
    },
    {
      "inputs": [
        {
          "name": "_matchId",
          "type": "uint256"
        },
        {
          "name": "_choice",
          "type": "uint256"
        }
      ],
      "payable": true,
      "stateMutability": "payable",
      "type": "constructor"
    },
    {
      "constant": false,
      "inputs": [
        {
          "name": "_choice",
          "type": "uint256"
        }
      ],
      "name": "makeBet",
      "outputs": [],
      "payable": true,
      "stateMutability": "payable",
      "type": "function"
    },
    {
      "constant": false,
      "inputs": [],
      "name": "getMatchId",
      "outputs": [
        {
          "name": "",
          "type": "uint256"
        }
      ],
      "payable": false,
      "stateMutability": "nonpayable",
      "type": "function"
    },
    {
      "constant": false,
      "inputs": [],
      "name": "getFunds",
      "outputs": [
        {
          "name": "",
          "type": "uint256"
        }
      ],
      "payable": false,
      "stateMutability": "nonpayable",
      "type": "function"
    },
    {
      "constant": false,
      "inputs": [
        {
          "name": "winner",
          "type": "uint256"
        }
      ],
      "name": "setWinner",
      "outputs": [
        {
          "name": "",
          "type": "bool"
        }
      ],
      "payable": false,
      "stateMutability": "nonpayable",
      "type": "function"
    }
  ],
  "bytecode": "0x606060405260405160408061060483398101604052808051906020019091908051906020019091905050600081141561007757336000806101000a81548173ffffffffffffffffffffffffffffffffffffffff021916908373ffffffffffffffffffffffffffffffffffffffff1602179055506100b9565b33600160006101000a81548173ffffffffffffffffffffffffffffffffffffffff021916908373ffffffffffffffffffffffffffffffffffffffff1602179055505b816002819055505050610533806100d16000396000f300606060405260043610610083576000357c0100000000000000000000000000000000000000000000000000000000900463ffffffff1680630df7160214610088578063153dc182146100c357806320a0fdbc146100ec578063409bea13146101415780634d9b373514610196578063718cc769146101bf57806399892e47146101d7575b600080fd5b341561009357600080fd5b6100a96004808035906020019091905050610200565b604051808215151515815260200191505060405180910390f35b34156100ce57600080fd5b6100d66103fa565b6040518082815260200191505060405180910390f35b34156100f757600080fd5b6100ff610404565b604051808273ffffffffffffffffffffffffffffffffffffffff1673ffffffffffffffffffffffffffffffffffffffff16815260200191505060405180910390f35b341561014c57600080fd5b61015461042a565b604051808273ffffffffffffffffffffffffffffffffffffffff1673ffffffffffffffffffffffffffffffffffffffff16815260200191505060405180910390f35b34156101a157600080fd5b6101a961044f565b6040518082815260200191505060405180910390f35b6101d5600480803590602001909190505061046e565b005b34156101e257600080fd5b6101ea610501565b6040518082815260200191505060405180910390f35b60008082141561027d576000809054906101000a900473ffffffffffffffffffffffffffffffffffffffff1673ffffffffffffffffffffffffffffffffffffffff166108fc3073ffffffffffffffffffffffffffffffffffffffff16319081150290604051600060405180830381858888f19350505050506103f1565b60018214156102fa57600160009054906101000a900473ffffffffffffffffffffffffffffffffffffffff1673ffffffffffffffffffffffffffffffffffffffff166108fc3073ffffffffffffffffffffffffffffffffffffffff16319081150290604051600060405180830381858888f19350505050506103f0565b6000809054906101000a900473ffffffffffffffffffffffffffffffffffffffff1673ffffffffffffffffffffffffffffffffffffffff166108fc60023073ffffffffffffffffffffffffffffffffffffffff163181151561035857fe5b049081150290604051600060405180830381858888f1935050505050600160009054906101000a900473ffffffffffffffffffffffffffffffffffffffff1673ffffffffffffffffffffffffffffffffffffffff166108fc60023073ffffffffffffffffffffffffffffffffffffffff16318115156103d357fe5b049081150290604051600060405180830381858888f19350505050505b5b60019050919050565b6000600254905090565b600160009054906101000a900473ffffffffffffffffffffffffffffffffffffffff1681565b6000809054906101000a900473ffffffffffffffffffffffffffffffffffffffff1681565b60003073ffffffffffffffffffffffffffffffffffffffff1631905090565b60008114156104bc57336000806101000a81548173ffffffffffffffffffffffffffffffffffffffff021916908373ffffffffffffffffffffffffffffffffffffffff1602179055506104fe565b33600160006101000a81548173ffffffffffffffffffffffffffffffffffffffff021916908373ffffffffffffffffffffffffffffffffffffffff1602179055505b50565b600254815600a165627a7a72305820e59c1b6778c64170e3ac2d4b6cb4f09fd72aa5d9e557214da9200fed65c43c5c0029",
  "source": "pragma solidity ^0.4.4;\n\ncontract bettingContractV1 {\n\n    address public team0bet;\n    address public team1bet;\n\n    uint public matchId;\n\n    function bettingContractV1(uint _matchId, uint _choice) payable {\n        if(_choice == 0) {\n            team0bet = msg.sender;\n        }\n        else {\n            team1bet = msg.sender;\n        }\n\n        matchId = _matchId;\n    }\n\n    function makeBet(uint _choice) payable {\n        if(_choice == 0) {\n            team0bet = msg.sender;\n        }\n        else {\n            team1bet = msg.sender;\n        }\n    }\n\n    function getMatchId() returns (uint) {\n        return matchId;\n    }\n\n    function getFunds() returns (uint) {\n        return this.balance;\n    }\n\n    function setWinner(uint winner) returns (bool) {\n        if(winner == 0) {\n            team0bet.send(this.balance);\n        }\n        else if (winner == 1) {\n            team1bet.send(this.balance);\n        }\n        else {\n            team0bet.send(this.balance/2);\n            team1bet.send(this.balance/2);\n        }\n\n        return true;\n    }\n}\n",
  "sourcePath": "/home/mario/WebstormProjects/esbContractDevelopment/contracts/bettingContractV1.sol",
  "compiler": {
    "name": "solc",
    "version": "0.4.19+commit.c4cbbb05.Emscripten.clang"
  },
  "schemaVersion": "2.0.0",
  "updatedAt": "2018-03-07T11:29:00.962Z"
}