{
  "contractName": "bettingContractV1",
  "abi": [
    {
      "constant": true,
      "inputs": [],
      "name": "team2bet",
      "outputs": [
        {
          "name": "",
          "type": "address"
        }
      ],
      "payable": false,
      "stateMutability": "view",
      "type": "function"
    },
    {
      "constant": true,
      "inputs": [],
      "name": "team1bet",
      "outputs": [
        {
          "name": "",
          "type": "address"
        }
      ],
      "payable": false,
      "stateMutability": "view",
      "type": "function"
    },
    {
      "constant": true,
      "inputs": [],
      "name": "matchId",
      "outputs": [
        {
          "name": "",
          "type": "uint256"
        }
      ],
      "payable": false,
      "stateMutability": "view",
      "type": "function"
    },
    {
      "constant": true,
      "inputs": [],
      "name": "amount",
      "outputs": [
        {
          "name": "",
          "type": "uint256"
        }
      ],
      "payable": false,
      "stateMutability": "view",
      "type": "function"
    },
    {
      "inputs": [
        {
          "name": "_matchId",
          "type": "uint256"
        },
        {
          "name": "_address",
          "type": "address"
        },
        {
          "name": "_choice",
          "type": "uint256"
        },
        {
          "name": "_amount",
          "type": "uint256"
        }
      ],
      "payable": false,
      "stateMutability": "nonpayable",
      "type": "constructor"
    },
    {
      "constant": false,
      "inputs": [],
      "name": "returnMatchId",
      "outputs": [
        {
          "name": "",
          "type": "uint256"
        }
      ],
      "payable": false,
      "stateMutability": "nonpayable",
      "type": "function"
    },
    {
      "constant": false,
      "inputs": [
        {
          "name": "_address",
          "type": "address"
        },
        {
          "name": "_choice",
          "type": "uint256"
        },
        {
          "name": "_amount",
          "type": "uint256"
        }
      ],
      "name": "makeBet",
      "outputs": [],
      "payable": false,
      "stateMutability": "nonpayable",
      "type": "function"
    }
  ],
  "bytecode": "0x6060604052341561000f57600080fd5b60405160808061040683398101604052808051906020019091908051906020019091908051906020019091908051906020019091905050600182141561009457826000806101000a81548173ffffffffffffffffffffffffffffffffffffffff021916908373ffffffffffffffffffffffffffffffffffffffff1602179055506100d6565b82600160006101000a81548173ffffffffffffffffffffffffffffffffffffffff021916908373ffffffffffffffffffffffffffffffffffffffff1602179055505b80600281905550836003819055505050505061030f806100f76000396000f300606060405260043610610078576000357c0100000000000000000000000000000000000000000000000000000000900463ffffffff168063116625151461007d57806320a0fdbc146100d25780636d84eadc1461012757806399892e4714610150578063aa8c217c14610179578063f1ebabf8146101a2575b600080fd5b341561008857600080fd5b6100906101ed565b604051808273ffffffffffffffffffffffffffffffffffffffff1673ffffffffffffffffffffffffffffffffffffffff16815260200191505060405180910390f35b34156100dd57600080fd5b6100e5610213565b604051808273ffffffffffffffffffffffffffffffffffffffff1673ffffffffffffffffffffffffffffffffffffffff16815260200191505060405180910390f35b341561013257600080fd5b61013a610238565b6040518082815260200191505060405180910390f35b341561015b57600080fd5b610163610242565b6040518082815260200191505060405180910390f35b341561018457600080fd5b61018c610248565b6040518082815260200191505060405180910390f35b34156101ad57600080fd5b6101eb600480803573ffffffffffffffffffffffffffffffffffffffff1690602001909190803590602001909190803590602001909190505061024e565b005b600160009054906101000a900473ffffffffffffffffffffffffffffffffffffffff1681565b6000809054906101000a900473ffffffffffffffffffffffffffffffffffffffff1681565b6000600354905090565b60035481565b60025481565b600182141561029c57826000806101000a81548173ffffffffffffffffffffffffffffffffffffffff021916908373ffffffffffffffffffffffffffffffffffffffff1602179055506102de565b82600160006101000a81548173ffffffffffffffffffffffffffffffffffffffff021916908373ffffffffffffffffffffffffffffffffffffffff1602179055505b5050505600a165627a7a7230582019a1b235ff577a17ee83b2efd74550988ef570617e43e70f5adb132626a961d20029",
  "source": "pragma solidity ^0.4.4;\n\ncontract bettingContractV1 {\n\n    address public team1bet;\n    address public team2bet;\n\n    uint public amount;\n    uint public matchId;\n\n    function bettingContractV1(uint _matchId, address _address, uint _choice, uint _amount) {\n        if(_choice == 1) {\n            team1bet = _address;\n        }\n        else {\n            team2bet = _address;\n        }\n\n        amount = _amount;\n        matchId = _matchId;\n    }\n\n    function returnMatchId() returns (uint) {\n        return matchId;\n    }\n\n    function makeBet(address _address, uint _choice, uint _amount) {\n        if(_choice == 1) {\n            team1bet = _address;\n        }\n        else {\n            team2bet = _address;\n        }\n    }\n\n\n\n\n}\n",
  "sourcePath": "/home/mario/WebstormProjects/esbContractDevelopment/contracts/bettingContractV1.sol",
  "compiler": {
    "name": "solc",
    "version": "0.4.19+commit.c4cbbb05.Emscripten.clang"
  },
  "schemaVersion": "2.0.0",
  "updatedAt": "2018-03-05T14:26:52.927Z"
}